:020000040000FA
:06000000020107022C8B37
:03002B000230DDC3
:030033000230BFD9
:03004B000230FE82
:03005300022CFE7E
:03006B00023099C7
:10008300022AF7E5C754F84401F5C77901220000B5
:100093000080FB120086B900030200F1E4792178A5
:1000A30008B800028004F709D8FCE479297802B87B
:1000B30000028004F709D8FCE490028178A579084E
:1000C3008002F0A3D8FCD9FA7A257B0A900137780D
:1000D3003679068015E493A3AD82AE838A828B833F
:1000E300F0A3AA82AB838D828E83D8E9D9E7758288
:1000F300AC7583D5740312011975829175830074ED
:100103000012011975D00075813F751881751902A8
:10011300759F00020096C09FF59FE473D09F22D085
:1001230083D082C09FE493C0E0740193C0E0740263
:1001330093F59F22FF0000B4000028002800283018
:1001430075A000A000A000A00000080008E001F0D6
:10015300001000100010001000100010005000509C
:1001630000500010001000D0070000000000000F36
:100173000001000500307507001000010081FF0039
:10018300000000FF6A0888087008FF0202020802E4
:100193005000A0000000E80302C383010000A48311
:1001A30002C7830100007C0A02CD83010000B30271
:1001B30002C7830100007D0A02CF83010000C90248
:1001C30002C7830100007E0A02D183010000CB0233
:1001D30002C7830100007F0A02D383080000CC0218
:1001E30002C783010000800A02D583010000810A4F
:1001F300FF0100FF2002C383010000A78302C7831E
:10020300010000E50A020584000000000002CB8320
:1002130003000019033A0E3A0E3A0E3A0E3A0E3A1A
:100223000E3A0E3A0E3A0E3A0E3A0E3A0E3A0EBC09
:1002330010D410B6100A63686172616374657269E1
:10024300737469632031000A636861726163746562
:100253007269737469632032000A6368617261634F
:1002630074657269737469632033000A6368617229
:10027300616374657269737469632034000A636827
:100283006172616374657269737469632035000A0E
:10029300636861726163746572697374696320363C
:1002A300000A636861726163746572697374696378
:1002B3002037000A636861726163746572697374DD
:1002C300696320380002C383010000AD8302C78342
:1002D300010000260B02FF83030000420702C983CB
:1002E300010000270B02C783010000380B02FD83C6
:1002F3000300004E0702C983010000390B02C783C4
:100303000100004A0B02FB830300005A0702C98362
:100313000100004B0B02C7830100005C0B02F98351
:10032300030000660702C9830100005D0B02C78357
:100333000100006E0B02F783030000720702C983FA
:100343000100006F0B02C783010000800B02F383DF
:100353000300007E0702C983010000810B02C783EB
:10036300010000920B02DD830300008A0702C983A8
:10037300010000930B02C783010000A40B02DB837F
:10038300030000960702C983010000A50BFFFF02CB
:100393000202020202020202010D00000010010229
:1003A300C383010000118302C783010000800C0294
:1003B300B983010000B40702C783010000810C0266
:1003C300B783010000D68202C783010000820C02BA
:1003D300B583010000BA8202C783010000830C02C7
:1003E300B383010000548202C783010000840C021E
:1003F300D783010000668202C783010000850C02D7
:10040300D983010000308202C783010000860C02F9
:10041300F183010000788202C783010000870C0288
:100423000384010000C88202C783010000880C0214
:10043300BD83010000890C9A99193E01E803053F29
:10044300100AFF00013075030201060000000000DE
:100453000000000000000000000000000000000099
:1004630000000000000000FFFF0600800CE8030A04
:10047300636861726163746572697374696320315F
:10048300000A636861726163746572697374696396
:100493002032000A63686172616374657269737400
:1004A30069632033001A63686172616374657269FA
:1004B300737469632034000A6368617261637465ED
:1004C3007269737469632035000A636861726163DA
:1004D30074657269737469632036001A63686172A4
:1004E300616374657269737469632037000A6368B2
:1004F30061726163746572697374696320380002A1
:10050300C383010000AA8302C783010000600D02B8
:10051300E1830300008A0902C983010000610D021F
:10052300C783010000720D02E3830300008C0902FC
:10053300C983010000730D02C783010000840D020B
:10054300E5830300008D0902C983010000850D02C4
:10055300C783010000960D02E7830300008E0902A2
:10056300CB830300008F0902C983010000970D02AA
:10057300C783010000A80D02E98303000095090267
:10058300C983010000A90D02C783010000BA0D024F
:10059300EB83030000960902C983010000BB0D022F
:1005A300C783010000CC0D02ED830300009709020D
:1005B300CB83030000AB0902C983010000CD0D0208
:1005C300C783010000DE0D02EF83030000B10902BF
:1005D300C983010000DF0D0101080947454E454568
:1005E3004533051208000800020A000FFF0102004C
:1005F30000000000000000000000000302FED02203
:100603001052656D696E6465725465737400000001
:10061300000000000000961500009C1530313233B5
:1006230034353637383941424344454600286E75E0
:100633006C6C20706F696E746572290030313233CF
:10064300343536373839616263646566003F3F3F4E
:10065300000000807FF9021550B743BA5100002013
:100663004100E7DB2E0000A0401201221AC503124D
:10067300012231C50312012262C5031201229DC565
:1006830003120122C7C503120122F1C5031201227D
:1006930008C6031201221FC60312012236C6031223
:1006A30001225FC60312012272C60312012288C609
:1006B300031201229BC603120122C2C603120122A6
:1006C30054DD0212012258DE0212012290DE0212D0
:1006D3000122B3DE02120122BEDE02120122E1DE9A
:1006E30002120122F0DF02120122C5E002120122EE
:1006F30040E102120122C8E10212012203E20212C6
:1007030001223AE202120122C8E202120122A1E30B
:100713000212012201E4021201220CE4021201225C
:100723008BE4021201228EE40212012291E40212EE
:10073300012220E50212012223E50212012253E5E0
:10074300021201227DE5021201226BE6021201224E
:100753001DE7021201221FFB0112012247FB0112B6
:10076300012275FB01120122ACFB011201220AFCDA
:100773000112012255FC01120122A0FC01120122E7
:10078300E0FC0112012226FD0112012254FD011297
:10079300012211FE011201221BFE0112012228FE79
:1007A300011201225BFE0112012227FF0112012225
:1007B30033FF011201224BFF0112012255FF0112E7
:1007C3000122FDCF031201220BD00312012223D0F9
:1007D300031201223BD0031201222EEC011201224B
:1007E300DAEC0112012255ED0112012276EE01121B
:1007F3000122B2EE011201225BEF0112012242F04B
:1008030001120122A6F101120122FDF101120122BE
:100813007EF2011201226EF301120122BBF30112D7
:10082300012241F40112012273F40112012287F61D
:1008330001120122C9F601120122E7F60112012277
:100843006AF7011201223EF80112012206F9011290
:100853000122EDF702120122C0F80212012269F906
:1008630002120122BCF9021201226CFA02120122C5
:10087300F8FA02120122E4FB0212012213FC021213
:10088300012226FD021201226EFD0212012243FE05
:10089300021201227FFE021201229BFE021201229A
:1008A300E7D30312012276B1031201228CB10312A2
:1008B3000122B2B103120122CEB203120122D8B235
:1008C300031201220DB40312012205B50312012202
:1008D300AD9203120122DD9303120122109403123D
:1008E30001225A9403120122219603120122DDCC24
:1008F3000112012247CD01120122A6CE01120122CB
:10090300B6CE01120122E3CE011201223ACF011227
:100913000122E3CF01120122EAD001120122B4D154
:100923000112012214D30112012257D30112012211
:10093300FCD30112012249D4011201226FD4011206
:1009430001227DD60112012282D60112012287D80B
:1009530001120122D4D80112012247D90112012226
:100963007AD9011201221CDA01120122C5DA01121D
:100973000122FDDA0112012200DB0112012248DB10
:100983000112012288DB01120122DFDB01120122A5
:100993004FBB0312012267BB03120122AFBB031239
:1009A3000122C5BB031201220CBC0312012220BD8C
:1009B30003120122ADBD03120122F8BD031201226D
:1009C3000C3100120122183100120122533100129E
:1009D3000122983100120122583200120122DE3224
:1009E300001201224333001201226F33001201224D
:1009F300A83300120122E63500120122CA37001281
:100A03000122B03900120122F33A00120122413DC2
:100A130000120122533E001201229E3F00120122C6
:100A2300AE4000120122CB40001201220641001207
:100A330001222841001201228B41001201224C465F
:100A430000120122E1460012012232470012012264
:100A5300594700120122AB4700120122C947001275
:100A630001222348001201220C4900120122824A6A
:100A730000120122064B00120122D4970312012215
:100A8300DE97031201222198031201223C980312DC
:100A93000122CC9803120122F49803120122319906
:100AA3000312012268990312012291990312012270
:100AB300069A031201221B9A03120122309A03128F
:100AC3000122619A03120122759A031201229A9A52
:100AD30003120122D49A03120122009B0312012262
:100AE300389B03120122B79B03120122009C0312BD
:100AF30001222A9C03120122559C03120122E9CCF4
:100B03000312012253C50212012281C502120122DE
:100B1300CFC602120122AFC702120122CEC70212B0
:100B230001224BC8021201228EC802120122E4C91B
:100B330002120122A5CA021201222CCD02120122A5
:100B4300CDCD02120122C3CE02120122C0CF021266
:100B530001221AD102120122A5D1021201228ECB47
:100B630003120122F7CB031201224BCC0312012201
:100B730072CC03120122A3CC03120122FFA00312A1
:100B830001226CA103120122B3A103120122CBA201
:100B930003120122C7A303120122AAA403120122F2
:100BA3008EE702120122D0E702120122A2E802120A
:100BB30001227BE90212012275EA0212012257EB9C
:100BC30002120122C0EB0212012276EC0212012270
:100BD300EAEC0212012256ED021201227FED02120B
:100BE3000122F9ED0212012292EE02120122F7EE26
:100BF300021201220CEF0212012252EF0212012211
:100C03006BEF02120122D0EF02120122D3EF021284
:100C1300012256B8031201227EB803120122BCB886
:100C2300031201227AB903120122E1B9031201224C
:100C3300FDB90312012225BA0312012255BA031288
:100C4300012264BA03120122E1BA0312012207BB93
:100C530003120122CCDC01120122AADE01120122BD
:100C6300DCE00112012218E10112012245E1011227
:100C730001222FE2011201227AE201120122C5E2CE
:100C830001120122D7E20112012217E3011201220C
:100C93004CE3011201229AE301120122C9E301127A
:100CA3000122ECE30112012239E401120122BEE424
:100CB30001120122D8E60112012217E901120122D1
:100CC30058E901120122FAEA011201223BEB011257
:100CD3000122AEEB0112012204EC011201223EB803
:100CE300021201223CB902120122D5BF02120122D3
:100CF300F6C102120122C1C30212012229C5021246
:100D030001226D4B001201221C4C00120122624C85
:100D130000120122A24D00120122384F00120122BB
:100D2300B24F00120122CD4F00120122485000128F
:100D33000122A2510012012202530012012208547F
:100D4300001201226955001201228255001201226C
:100D5300E05500120122CE56001201220157001263
:100D63000122715700120122EB570012012235585C
:100D730000120122FF5800120122D459001201224D
:100D8300B35A001201223E5B00120122AC5B001237
:100D93000122205C001201224B5C001201220A5D39
:100DA300001201226F5E001201228C5E00120122EA
:100DB300AB5E001201229C5F00120122C15F001290
:100DC3000122EB5F00120122666000120122C06063
:100DD30000120122296200120122D76200120122AD
:100DE3001863001201229B9C02120122E99C021249
:100DF3000122F59C02120122D39D02120122049EBC
:100E030002120122359E02120122B59E0212012214
:100E1300ED9E021201223F9F021201227C9F0212C9
:100E2300012299A102120122BFA302120122AAA543
:100E33000212012294A702120122FD7F0012012255
:100E43003298011201226298011201223B9F011282
:100E53000122C0A001120122BDA601120122A5A7F1
:100E630001120122E2A70112012205A801120122A7
:100E730036A8011201223FA80112012249A801123A
:100E8300012237A9011201222DAA0112012248636E
:100E9300001201224767001201224D67001201224E
:100EA300886E00120122A173001201220FB50312F2
:100EB300012209B6031201227DB603120122BBB639
:100EC300031201222FB703120122A8B70312012232
:100ED300B1B703120122BDB703120122D2B7031225
:100EE300012210B80312012226B8031201226CA5B5
:100EF3000312012279A50312012293A503120122F1
:100F0300D2A50312012210A60312012275A6031211
:100F130001228AA60312012295A603120122A2A688
:100F230003120122B9A603120122C7A6031201224A
:100F3300D2A603120122DEA603120122EDA603129A
:100F43000122F8A6031201221BA703120122C2A742
:100F530003120122D2A703120122ECA703120122DA
:100F630009A80312012225A8031201224AA8031289
:100F7300012255A8031201226AA8031201227EA8A6
:100F830003120122DFA803120122E5A803120122A2
:100F9300EBA803120122F1A80312012209A90312EB
:100FA30001223CA903120122718E02120122F58E45
:100FB30002120122A48F02120122039102120122C2
:100FC3002493021201221094021201224594021268
:100FD30001226794021201221695021201220E9732
:100FE30002120122379702120122C997021201222B
:100FF300FB97021201220898021201225F98021243
:101003000122859802120122F29A02120122F59B13
:10101300021201224D9C02120122008002120122BF
:101023000A8102120122F18102120122FB810212C2
:1010330001221D8202120122298202120122C2838D
:1010430002120122F183021201220D8502120122F2
:10105300668502120122CC8602120122AB8702129C
:101063000122078802120122748802120122AF882A
:1010730002120122EE8802120122A78B0212012220
:10108300C18B021201224D8C021201225B8C0212CF
:101093000122B48C02120122C28C02120122358D6C
:1010A30002120122998D02120122E38D0212012202
:1010B30026D20212012248D2021201226ED4021257
:1010C300012283D7021201229BD8021201224ED998
:1010D3000212012230DA02120122D4C603120122C3
:1010E300F9C6031201226BC70312012257780012BB
:1010F30001226078001201226978001201224079EE
:1011030000120122F17A00120122277B0012012230
:10111300617B00120122977B00120122D17B001216
:101123000122057C00120122317C001201227A7C0B
:1011330000120122B47C00120122FD7C0012012264
:10114300557D001201228A7D00120122E57D0012E5
:1011530001221F7E00120122707E00120122A67E50
:1011630000120122E07E001201220E7F00120122F2
:10117300317F001201228AD103120122B6D1031258
:10118300012211D2031201221BD2031201222BD2FC
:10119300031201227D9C03120122B79C0312012238
:1011A300A79D031201227C9E03120122DAA00312DF
:1011B30001223D8D03120122478D03120122858DE9
:1011C30003120122CE8D03120122088E0312012283
:1011D3005E8E031201227F8E03120122888E031278
:1011E3000122D38E03120122FC8E03120122068FE9
:1011F30003120122728F03120122089003120122AB
:101203005290031201228290031201220B910312C6
:1012130001224B9103120122839103120122959122
:1012230003120122B49103120122BD910312012280
:1012330083920312012206CF031201222BC303124E
:10124300012261C30312012297C303120122E0C4E6
:1012530003120122E3D403120122F9D4031201225F
:1012630003D5031201224DD503120122B9A903129A
:101273000122CEA90312012281AA03120122C1AACB
:1012830003120122DAAA031201220EAB0312012276
:101293005BAB031201228FAB03120122D1AB03120A
:1012A3000122CDAD0312012210FF0212012239FFE8
:1012B3000212012262FF02120122A4FF0212012282
:1012C30022BE0312012247BE0312012271BE031282
:1012D3000122A8BC01120122CABC0112012208BDCD
:1012E3000112012248BD0112012283BD0112012214
:1012F300DABD011201226FBE01120122FEBE0112EC
:101303000122B2BF0112012250C00112012272C197
:1013130001120122ABC401120122EAC4011201220B
:10132300D5C801120122E1C8011201223BC90112F1
:1013330001224BC901120122A3C90112012202CCCD
:1013430001120122D3CC01120122D8CC01120122B5
:101353006BD40312012276D4031201229ED403120A
:1013630001225BD303120122AFD303120122C3D3A1
:101373000312012248D6031201220884011201221A
:101383006C86011201221D88011201221F8901129C
:101393000122A889011201222C8A01120122518AF9
:1013A300011201228A8D01120122FE8D01120122F6
:1013B300EF8E01120122298F01120122698F01127E
:1013C30001221C91011201226F9101120122B89195
:1013D30001120122269201120122589201120122C6
:1013E3007092011201228593011201229593011239
:1013F3000122B09401120122D29401120122089514
:1014030001120122AC9601120122EB960112012274
:101413000D9801120122D4D003120122E5D0031248
:101423000122FFD5031201223ED603120122E9FF56
:1014330002120122CBD203120122DBD203120122B8
:10144300F0D20312012258D30312012202CE031257
:10145300012287CE03120122EDCE0312012216CA06
:10146300031201223FCA03120122AACA0312012254
:10147300FBCA0312012254CB03120122DAAD031279
:101483000122F1AD031201226AAE031201223FAF22
:101493000312012211B10312012279C8031201229E
:1014A300C9C80312012252C903120122B8C9031287
:1014B3000122EEC00312012218C103120122DEC170
:1014C30003120122B9C203120122F7EF0212012211
:1014D300B4F002120122EFF00212012217F10212FC
:1014E300012279F102120122C5F10212012225F231
:1014F30002120122B8F202120122B7F302120122F0
:1015030046F502120122C9F50212012230F6021237
:10151300012247F60212012251F7021201228FF72C
:10152300021201226FAA02120122CFAD021201227E
:1015330057AF02120122AEAF02120122CDAF021247
:1015430001224BB002120122DBB102120122BFB20F
:1015530002120122CBB6021201229BB70212012210
:101563001487031201226487031201228187031265
:101573000122038903120122B689031201229B8AE5
:1015830003120122F98C03120122008003120122AB
:1015930085830312012298850312012238860312E0
:1015A3000122C8860312012245AC0112012255B162
:1015B30001120122D17F0012012235D2031201222E
:1015C3005FD203120122DCFF01E066701008A3E082
:1015D30066700A08A3E066700408A3E06622C3E00D
:1015E3009608A3E09608A3E09608A3E096A2D26526
:1015F300D03322C008C3E096F50808A3E09642085A
:1016030008A3E096420808A3E0964208A2D265D058
:1016130033E5087001D3D00822C3E7960809E7969B
:101623000809E7960809E79622C3E09608A3E0961F
:1016330008A3E09608A3E09622C008C3E096F50845
:1016430008A3E096420808A3E096420808A3E096A0
:1016530045087001D3D00822080808E630E71112C4
:101663001F7D121673080808C64480C6181818226E
:10167300181818E9799EC608CAC608CBC608CCC68E
:10168300C370207996CACBCC7019798ECBCC7013EA
:101693007986CC700EF9802ACA33CACB33CBCC33CC
:1016A300CC331930E7F2CCCBCA3350147004EA3090
:1016B300E00DE4CA3ACACB3BCBCC3CCC500209C3C5
:1016C300E913C6CC182313C6CB18C6CA18C6F92209
:1016D30012171320F01430E72B74FFFCFBFA747F0E
:1016E3008022E4FCFBFA7480801AB48008BC00F208
:1016F300BB00EF800F50EBF9E4C39AFAE49BFBE4E1
:101703009CFCE499C6CC18C6CB18C6CA18C6F922E5
:10171300E4C9C608CAC608CBC6D3330308CCC6334C
:1017230092F0C3947F402E94184019C9B90704CA94
:10173300CBCC225025C309CA33CACB33CBCC33CC51
:1017430033D9F422F4600DC9CCC313CB13CBCA1322
:10175300CAD9F6CC22E4FCFBFA2214FCFBFA22E6FB
:101763002618461846184622E727194719471947E6
:1017730022181818E60846087009E626087005E6D8
:1017830033F4220822191919E70947097009E727D1
:10179300097005E733F4220922E6084608C3134615
:1017A30008336002E633F422E7094709C313470904
:1017B300336002E733F42212179C60251217AB60E3
:1017C30020121762700302176B080808E76670108F
:1017D3001819E766700A1819E76670041819E7669E
:1017E30022F42212179C601C1217AB6017121762A7
:1017F300700712176B7001D322C0D012176B7006DB
:10180300D0D0B322C32233D0D0501430E0F6C3E794
:10181300960809E7960809E7960809E796B3222090
:10182300E0D5E6970809E6970809E6970809E697D9
:10183300B32212179C601B1217AB6016121762704B
:101843000712176B600CB322C0D012176B7005D050
:10185300D022C32233D0D0501330E0EBC3E7960835
:1018630009E7960809E7960809E7962220E0E4E6E7
:10187300970809E6970809E6970809E697220012F0
:10188300179C604F1217AB6012E7548066F612176D
:1018930074701112176B703B090909F4F618F618E6
:1018A300F618F622121788701512176208080860D6
:1018B300EAE6447FF618768018E4F618F622121743
:1018C30062601612176B7012E4F608F608F608E663
:1018D3005480F609090918181822EAC0E0EBC0E0A1
:1018E300ECC0E0EDC0E0E687F0A4FBACF008E687CF
:1018F300F0A42CFCE435F0FA1809E687F0A42C4B8D
:1019030060027401CA35F0FCE433FB09E687F0D2C8
:10191300F7A42CCB35F0FC1908E687F0A42BCC35C3
:10192300F0FBE433FD0819E687F0D2E7A42C4ACB99
:1019330035F0CD3400FC09E687F0D2E7A42DCC3591
:10194300F0FDE433FA0918E687F0D2F7A42CCD357D
:10195300F0CA3400FC08E687F0D2E7D2F7A42ACC19
:1019630035F07A7E20E70B0ACB33CBCD33CDCC33A6
:10197300CC33CB3350147004ED30E00ED2F1E4CD10
:101983003DCDCC3CCC3B5005DA05C2F1EB547FC6D0
:101993003308E63392F0FBE73309E733C39A502D5C
:1019A3002B70190C0D4C4D70151806E608C33370D7
:1019B3000D20F10AA2F013F6E418800B4024E4F69C
:1019C30030F002768018F618F618F68024D33B140C
:1019D300501074FFA2F013F6187680E418F618F688
:1019E300800FA2F013F618E63303F618ECF618EDA1
:1019F300F6D0E0FDD0E0FCD0E0FBD0E0FA221217F5
:101A0300AB604612179C603DE9687008F618F6183B
:101A1300F618F622748067F7121A350909097480DB
:101A230067F72212179C601D1217AB70051919195D
:101A3300801A121774701F121788C37003E6673376
:101A430019191940071818182208080874FFF618FE
:101A5300F618F618F622121788601712176B702102
:101A630092F01217627019501720F0140808080931
:101A73000909E7F61819E7F61819E7F61819E7F64A
:101A83002212176260E6E869701F0808E62480F6F0
:101A930008E436F618547FB47F0CE654806007F6EA
:101AA300E418F618F622181822E9C6CC08C6CD08A1
:101AB300C6CE08C6CFC0E0E8C0E0EAC0E0EBC0E0B5
:101AC30009E9F809E7FA09E7FBE6F918E6F8C3ECD0
:101AD30098ED99EE9AEBC2E7F5F0EFC2E795F05077
:101AE3000E600CEBCFFBEACEFAE9CDF9E8CCF8EACD
:101AF300A2E7D2E7FAEB33FB13F5F0EEA2E7D2E766
:101B0300FEEF33FFC5F013A2E730E601B313C5F0D0
:101B1300C3C0E0C0F07F00C39BFB605E9418600FFE
:101B2300401D14601AD0E023F9D0E0F8021C078AA4
:101B3300F0E9486003D2F0E4AFF0FAF9F8803BEB48
:101B430030E40D89F0EA6003D2F0E4AFF0F9CAF8AB
:101B5300EB30E30D88F0EF6002D2F0AFF0E4CAC9D6
:101B6300F8EB54076014FBC3EA13FAE913F9E8131B
:101B7300F8EF135002D2E0FFDBEDD0E0C0E030E736
:101B830039C3E49FFFF5F0EC98FC42F0ED99FD4278
:101B9300F0EE9AFE42F0D0E0F9D0E0F8E5F0607A9A
:101BA300E923F9EE20E742D8028067C3EF33FFEC65
:101BB30033FCED33FDEE33FE80EAEC28FCED39FD1A
:101BC300EE3AFED0E023F9D0E0F84002801BC3EEEA
:101BD30013FEED13FDEC13FCEF135002D2E0FF08EC
:101BE300B800067F7F74FF802EEF3350178CF020F0
:101BF300F00260100CBC000C0DBD00080EBE00040A
:101C030008E860DFE933E813FFEE2313FE4F4D4C82
:101C13008008E95480FFE4FEFDFCEE33EF33F470FB
:101C230004FCFD7E80D0E0FBD0E0FAD0E0F8D0E009
:101C3300CFC618CEC618CDC618CCC6F92212179C2B
:101C43007004181818221217AB700D74FFF61819C8
:101C5300F61819F61819F622E7548066F612176279
:101C6300700F12176B70F014F608F608F608F6807A
:101C7300D112176B700CF608F608768008E6447FDD
:101C830080EC12178B700C12177760BFE65480F646
:101C9300E480BB121777700519191980A5E86970DC
:101CA3000C763F18768018F618F6E8F922E6CDC0D0
:101CB300E018ECC0E0E633CD33CDD313F6E719FCDF
:101CC300E7191933CC33C3947F400ECD9D502408BC
:101CD300E65480F6E418F6800FF4043D145014081B
:101CE300E6447FF6187680E418F618F6D0E0FCD0C8
:101CF300E0FD22CCD313CCFD18E4C6CBC0E018E43E
:101D0300C6CAC0E00808ED08C633E613F618E43384
:101D1300C675F003C3CA97CA09CB97CB199C400475
:101D23007D08802EBD0003021DE916B6FF050606D9
:101D3300081618C3CA33CACB33CB33CA27CA09CB55
:101D430037CB193CC37D08803E187D0820E75CC66D
:101D530033C6CA33CACB33CB33DDF1D5F0EB30E72F
:101D63007BCA97CA09CB974ACB199C406F4B702506
:101D7300E620E0218066187D08C3CA97CA09CB977D
:101D8300CB199CD3C633C6CA33CACB33CB3350C962
:101D9300DDE7D5F0E1D3E4C636C608C636C608C6C5
:101DA30036C608C636C61818188031C3CA97CA097A
:101DB300CB97CB199CB34097C633C6CA33CACB3330
:101DC300CB33DD34D5F02EC6A2E0C640C8CA27CA3D
:101DD30009CB37194A70BECB3CB480B90808E63347
:101DE30008E633601F181818D0E0FAD0E0FBD0E003
:101DF300FCD0E0FD22187D08CA27CA09CB37CB19CE
:101E03003CD3808013F618E4B67F11F618B6FF0EA4
:101E1300F618C60470D20808768080CAF618F61839
:101E2300F680C5080808EAC0E0EBC0E086F0E7A446
:101E3300FA180986F0E7A42AFA180986F0E7A42A13
:101E4300FA180986F0E7A42AFA1986F0E7A4FBE555
:101E5300F02AFA190886F0E7A42BFBE5F03AFA1901
:101E63000886F0E7A42BFBE5F03AFA18180986F088
:101E7300E7A4C5F02BFBE43AFA1908E7C5F0C6A4BA
:101E830026F6E5F03BFBE43AFA1886F0E7A4F6E51C
:101E9300F00826F6E43B08F6E43A08F6D0E0FBD077
:101EA300E0FA22E4CFC0E0E4CEC0E0E4CDC0E0E459
:101EB300CCC0E075F020E626F608E633F608E633F4
:101EC300F608E633F6181818EC33FCED33FDEE3361
:101ED300FEEF33FFC3EC9709ED9709EE9709EF97F0
:101EE300191919400FFFEC97FC09ED97FD09EE97BF
:101EF300FE191906D5F0BFECF709EDF709EEF7095E
:101F0300EFF7191919D0E0FCD0E0FDD0E0FED0E0E6
:101F1300FF22121F80181818121EA6121F6C1919FF
:101F23001922121F6C191919080808E61818182025
:101F3300E7E0121EA6121F8018181822090909E7E4
:101F430019191920E7DC080808E618181820E70310
:101F5300021EA6121F80181818121EA6121F801820
:101F63001818121F6C19191922E4C397F709E4977B
:101F7300F709E497F709E497F722181818E4C396CA
:101F8300F608E496F608E496F608E496F622601658
:101F9300080808C6C313C618C613C618C613C6183E
:101FA300C613C6D5E0EA227009080808226016188D
:101FB3001818C6C333C608C633C608C633C608C610
:101FC30033C6D5E0EA22E627F60809E637F608091C
:101FD300E637F60809E637F622E026F608A3E036E8
:101FE300F608A3E036F608A3E036F622E026F0086A
:101FF300A3E036F008A3E036F008A3E036F022C3EE
:10200300E697F60809E697F60809E697F60809E65B
:1020130097F622C3E096F008A3E096F008A3E096B3
:10202300F008A3E096F022E657F60809E657F6080B
:1020330009E657F60809E657F622E056F608A3E044
:1020430056F608A3E056F608A3E056F622E056F04B
:1020530008A3E056F008A3E056F008A3E056F022E8
:10206300E0F608A3E0F608A3E0F608A3E0F622E60C
:10207300F008A3E6F008A3E6F008A3E6F022E0FAEE
:10208300A3E0FBA3E0FCA3E0FD22EAF0A3EBF0A3B3
:10209300ECF0A3EDF022E0F8A3E0F9A3E0FAA3E06B
:1020A300FB22E8F0A3E9F0A3EAF0A3EBF022CAC015
:1020B300E0E6F0A308DAFAD0E0FA22CAC0E0E0A32F
:1020C300C582CCC582C583CDC583F0A3C582CCC5EB
:1020D30082C583CDC583DAE6D0E0CA22C3E498F88B
:1020E300E499F91221208026C3E49AFAE49BFBE9E0
:1020F30020E7E9122120E498F8E499F922C3E4984F
:10210300F8E499F9122120E498F8E499F9C3E49AE0
:10211300FAE49BFB22EB20E7CFE920E7E0B90010CC
:10212300BB0008E88AF084F8AAF022E4FBC8FA228C
:10213300EB70227B10C833C8C933C9335007C39A25
:10214300C3DBF280069A50012ADBEAC833F4C8C91C
:1021530033F4C9FA2275F008E4C833C8C933C93364
:10216300C99AC99B5004C92AC93BD5F0ECFBC833B3
:10217300F4C8E4C9FA22600D08C6A2E713C618C65C
:1021830013C6D5E0F322600C08C6C313C618C613E2
:10219300C6D5E0F422700422600D18C6C333C60806
:1021A300C633C6D5E0F41822251810AF08F5184039
:1021B3000C15198008F51840021519D2AF2200C07A
:1021C300D0251810AF08F518500C05198008F5181C
:1021D30050020519D2AFD0D0222518F58210AF08CE
:1021E300F518400C15198008F51840021519D2AFDF
:1021F300851983222518F582E43519F583222518DC
:10220300F8E43519F9222518FAE43519FB222518C3
:10221300FCE43519FD22E4732518C582C0E0E519F5
:1022230034FFC583C0E0E518C3958224F810AF08D6
:102233008583198582188008858319858218D2AF12
:10224300CEF0A3E520F0A37808E608F0A3DEFAEFCA
:10225300F0A3E58124FAF8E608F0A3E608F0A3E684
:1022630008F0A30808E608F0A3E608F0A315811513
:1022730081D0E0FED0E0F8158115811581E8C0E03A
:10228300EEC0E0222518C582C0E0E51934FFC583FE
:10229300C0E0E518C3958224F910AF08858319853A
:1022A30082188008858319858218D2AFCEF0A3E502
:1022B30020F0A37808E608F0A3DEFAEFF0A3E581A7
:1022C30024FBF8E608F0A3E608F0A30808E608F004
:1022D300A3E608F0A315811581D0E0FED0E0F81540
:1022E300811581E8C0E0EEC0E0228519838518825C
:1022F300E0A3FEE0A3F5207808E0A3F608DFFAE008
:10230300A3FFE0A3C0E0E0A3C0E0E0A3C0E0E0A33C
:10231300C0E0E0A3C0E010AF088582188583198070
:1023230008858218858319D2AFD083D08202011F1A
:10233300851983851882E0A3FEE0A3F5207808E0E1
:10234300A3F608DFFAE0A3FFE0A3C0E0E0A3C0E048
:10235300E0A3C0E0E0A3C0E010AF08858218858346
:10236300198008858218858319D2AFD083D0822241
:10237300C0D02518C582C0E0E51934FFC583C0E08D
:10238300E518C3958224F310AF0885831985821855
:102393008008858319858218D2AFC8F0A3E9F0A31A
:1023A300EAF0A3EBF0A37908E709F0A3D8FAECF07D
:1023B300A3EDF0A3EEF0A3EFF0A3D0E0F0A3D0E001
:1023C300F0A3D0E0F0A3E520F0A3E5F0F0A322858D
:1023D3001983851882E0C0E0A3E0F9A3E0FAA3E043
:1023E300FBA37808E0F608A3DFFAE0FCA3E0FDA373
:1023F300E0FEA3E0FFA3E0C0E0A3E0C0E0A3E0F5BC
:10240300D0A3E0F520A3E0A3F5F010AF088583196E
:102413008582188008858319858218D2AFD082D02F
:1024230083D0E0F8D0E03274048006740280027432
:1024330001C0E0F4041221DCD0E01220B1227404C4
:10244300800474028000CCC0E0EDC0E0E518C39CBA
:10245300CCAD1950011D10AF068C188D1980068C58
:10246300188D19D2AF1220BED0E0FDD0E0FC22D0EF
:1024730083D082E9C0E0E493A3C386F0C5F095F06E
:10248300F908E493A386F0C5F095F0700BE493A3E9
:10249300C3994005E9048002A3E475F002A42582F0
:1024A300F582E5F03583F583D0E0F9E493A3C0E04A
:1024B300E493C0E022D083D082ECC0E0EDC0E0E43E
:1024C30093A3FCE493A3FDED4C600D122504EC24CF
:1024D300FFFCED34FFFD80EFE493A3FCE493A3FD45
:1024E300ED4C600D122543EC24FFFCED34FFFD8021
:1024F300EFD0E0FDD0E0FCE493A3C0E0E493C0E0C0
:1025030022C0E0C3E49396087401939618400FE445
:102513009366700808740193661870007019A3A37A
:10252300C3E49396087401939618A3A3400DD0E0D7
:10253300D0E0D0E00224F4A3A3A3A3A3A3D0E0227A
:10254300C0E0C0F088F0E4936670080874019366F5
:10255300187000A8F0A3A3700BD0F0D0E0D0E0D0A7
:0B256300E00224F4A3A3D0F0D0E0229B
:1025700074F5122287EAFEEBFFEE2434F8EF340004
:10258000F988088909EE2435F582EF3400F583E0F7
:10259000F8EE2437F582EF3400F583E0F50AEC8598
:1025A0000AF0A4FCAAF0850AF0EDA42AFDE82CF8B4
:1025B000E43DF97A257B00122120EA85088285090D
:1025C00083F0F8740758F97401B900028004C3332A
:1025D000D9FCFAE8131313541FF8EE28F8EF34006F
:1025E000F9E8245DF582E93400F583E05A6008EEED
:1025F0002434F582EF802CEE2434F582EF3400F59C
:1026000083E0C0E0EE2436F582EF3400F583E0F598
:10261000F0D0E084A8F0EE28F8EF3400F9E8243890
:10262000F582E93400F583E0F97F0402233374F581
:10263000122287EAFEEBFFEE2434F582EF3400F538
:1026400083E0C0E0EE2435F582EF3400F583D0E07E
:10265000F08E828F83A3A3A3A3A3A3A3C082C0836E
:102660008E828F83A3A3A3A3A3E0F8A3E0F9D08372
:10267000D082E0C398F508A3E099F509EE247FF530
:1026800082EF3400F583E064017069EE2480F58206
:10269000EF3400F583E0F8A3E0F98E828F83A3A3E3
:1026A000A3A3A3A3A3E0FCA3E0FD8E828F83A3A337
:1026B000A3A3A3E0FAA3E0FBC3EA9CEB9D5010C3E5
:1026C000EC98ED99402EC3EA98EB995027800EC301
:1026D000EA98EB994007C3EC98ED9940177CDC7DB4
:1026E00004EEFAEFFB120D98EE247FF582EF340032
:1026F000F583E4F0EE2434F8EF3400F9E8FCE9FD6A
:10270000EE2435F582EF3400F583E0F8EE2437F55A
:1027100082EF3400F583E0F50AE508850AF0A4F5B8
:1027200008AAF0850AF0E509A42AF509E82508F8C1
:10273000E43509F97A257B00122120EA8C828D8309
:10274000F0F8740758F97401B900028004C333D952
:10275000FCFAE8131313541FF8EE28F8EF3400F9CD
:10276000E8245DF582E93400F583E05A6008EE2440
:1027700034F582EF802CEE2434F582EF3400F583BB
:10278000E0C0E0EE2436F582EF3400F583E0F5F0AA
:10279000D0E084A8F0EE28F8EF3400F9E82438F50A
:1027A00082E93400F583E0F9123085022629C082DF
:1027B000C083851882851983E0F8A3E0F9C3EA9CF9
:1027C000EB9D5010C3EC98ED99401BC3EA98EB9930
:1027D0005014800EC3EA98EB994007C3EC98ED992A
:1027E0004004790180027900D083D08222EAC39C20
:1027F000FAEB9DFB2274EF1222879003A2E064089B
:102800006005E06407702A9061C8E060249003D0FE
:10281000E0F4601DE0F875F003A4C8AAF02AF9748A
:10282000D228FE740339FF8E828F83A3A3A3E070A6
:1028300003022925906060E0C0E0EE2468F582EF95
:102840003400F583D0E0F0750C45750D0575080072
:10285000750900E5D914F50AE5D95403F50E60179A
:102860007403650E605CE50A6010EE2467F582EF84
:102870003400F583E0700302290A900540E064010A
:10288000602AEE2482F582EF3400F583E06004785C
:102890000480027800850A08E508C398FA95E0FBF1
:1028A000120C668A088B09EA45097005120F8A80A6
:1028B00074EE2482F582EF3400F583E070048A0C14
:1028C0008B0DE50A6012850C82850D83F50BE5D929
:1028D000F0A3150BE50B70F6EE2482F582EF3400C1
:1028E000F583E0604474FC250AF50A780C12242E66
:1028F000AC0AA90EEEFAEFFB120E3474021221C1DB
:10290000E97026AA08AB091214A0793D8E828F8344
:10291000A3A3A3A3E0FA7B00120B3AEEFAEFFB129B
:102920000DB0120E46790080747403650E605685F2
:102930000A10751100781012242EAC0CAD0DAA08E7
:10294000AB09120E1074021221C1EE2468F582EF59
:102950003400F583E064807004747F8001E0F50C3E
:10296000780C122432E50EF50C780C122432A90AE8
:10297000AC08AD099003D0E0FA7B00120AFE7402A5
:102980001221C180139003A2E06408600BAC0CAD6F
:102990000DEEFAEFFB120EA0120F9679017F0A02DC
:1029A000233374F512228774FC1221ABEAFEEBFF8D
:1029B0008908A2AFE433F509C2AF806AEE2463F858
:1029C000EF3400F97A007B00A2AFE433F50AC2AF1E
:1029D00088828983E0FCA3E0FDEC4D603A8882891F
:1029E00083E0FAA3E0FB8A828B83E0FCA3E0FD880E
:1029F000828983ECF0A3EDF08A828B83E4F0A3F06C
:102A000088828983E0FCA3E0FDEC4D700A8882890E
:102A100083A3A3E4F0A3F0E50AA2E092AF1214A00E
:102A20009004E3E004F0EE2463F582EF3400F583D4
:102A3000E0F8A3E0F9E849603DEE2463F582EF3465
:102A400000F583E02402FAA3E03400FBEA2402F557
:102A50000AEB3400F50B780A12242E8A828B83E06D
:102A6000FCA3E0F9EEFAEFFB120DD474021221C1BF
:102A7000E970030229BC9004E3E060639004E4E0A1
:102A8000F89004E3E0C398500C740265087050900D
:102A900004E5E0604A8E828F83A3A3A3A3E0851898
:102AA00082851983F0A3E4F09004E3E0F874021245
:102AB00021F7E8F0A3E4F09004E3E0F89004E2E00A
:102AC00028F074021221F7AC82AD83851882851933
:102AD00083AA82AB837901120B0A9004E3E4F0E548
:102AE00009A2E092AF74041221C10226290000005D
:102AF0008521878522C622C0E0C0D0E8C0E0E9C0B9
:102B0000E0EAC0E0EBC0E0ECC0E0EDC0E0EEC0E029
:102B1000C008C009C00AC00BC082C083C0F0A2AF09
:102B2000E433FEC2AF759B00906182E0A2E05012D8
:102B3000E591A2E0500C7591FE74016521700312BD
:102B400027F5E0A2E55051E591A2E5504B7591DFE4
:102B50009003A2E064076005E064087023740165D7
:102B600021703579019003D0E0FA75F003A4CAA86A
:102B7000F028FB74D22AFA74033BFB1229A28018B6
:102B8000E0640D70139003C4E004F064287002E464
:102B9000F07A00E0F9120F9C906182E0A2E6400317
:102BA000022C3EE591A2E64003022C3E7591BF90B7
:102BB00003A2E064057008120ECA120ED68003123A
:102BC0000ED0752100120F2AE99003A3F0790012AC
:102BD0000F1E120D0E7A017B009003A1E0F9121274
:102BE0000C907803E064427055900544E014F07056
:102BF0004DC2AF122BF600782AD0E0F618D0E0F6DE
:102C0000E59F540770057509FF800375097FC4C0EF
:102C1000E07829E6F50808E65509F509740B780807
:102C2000122189D0E02508F8906270E0A2E740F810
:102C3000E8C333906272F0906270E0D2E0F090618D
:102C400081E0A2E35009E5E9A2E3500375E9F7A3A7
:102C5000E0A2E75009E591A2E7500375917FEEA24B
:102C6000E092AFD0F0D083D082D00BD00AD009D080
:102C700008D0E0FED0E0FDD0E0FCD0E0FBD0E0FAF0
:102C8000D0E0F9D0E0F8D0D0D0E032C0E0C0D0C081
:102C900082C083906183E0A2E05009E5BFA2E050CA
:102CA0000375BFFEE0A2E15009E5BFA2E150037544
:102CB000BFFDE0A2E25009E5BFA2E2500375BFFBF1
:102CC000E0A2E35009E5BFA2E3500375BFF7E0A21D
:102CD000E45009E5BFA2E4500375BFEFE0A2E55060
:102CE00009E5BFA2E5500375BFDFE0A2E65009E5A4
:102CF000BFA2E6500375BFBFD083D0828088C0E0FA
:102D0000C0D0E8C0E0E9C0E0EAC0E0EBC0E0ECC061
:102D1000E0EDC0E0C0F0E5A7A2E6500FE5A1A2E615
:102D2000500953A7BF75A1BF122D63E5A7A2E550B7
:102D30000CE5A1A2E5500653A7DF75A1DFE5A7A228
:102D4000E15009E5A1A2E1500375A1FDE5A7A2E2CA
:102D5000500CE5A1A2E2500653A7FB75A1FBD0F0F1
:102D6000022C7474F81222877521019003A2E0648A
:102D7000067015120E648A828B83A3A3A3A3A3A358
:102D8000E0FAA3E0FB120EB8A2AFE433FED2AF909C
:102D900003A8E0640170187A207B009003A1E0F999
:102DA0001212907A207B009003A1E0F91212129087
:102DB0006182E0D2E6F0900541E0602185C6228084
:102DC000169003A7E064017008E5C654F84405F5C1
:102DD000C653BEFC122AF07401652160E4EEA2E045
:102DE00092AF7F01022333008E238F2485822885B2
:102DF0008327851882851983E0CEA3E0CF852882BA
:102E0000852783EBC9EAC8EDCBECCA75F010C3E89F
:102E100033C8E933C9EA33CAEB33CBC3EA9EF5269C
:102E2000EB9FF525B35004AB25AA26EC33CCED334C
:102E3000CDD5F0DAAE23AF242274ED1222878A08B2
:102E40008B098C0A8D0B74131221F7780C122063F6
:102E50007808790C12161C7510017511C8751200CE
:102E600075130050127808790C1220027810790836
:102E700012161C50168010780C7908122002781057
:102E8000790C12161C40047901800279007F0C0233
:102E9000233374ED1222878A088B098C0A8D0B74F8
:102EA000131221F7780C122063780C790812161C83
:102EB00040117808790C122002AA08AB09AC0AADBF
:102EC0000B802275100075110075120075130178C2
:102ED00010790C12200278107908121FC9AA10ABC1
:102EE00011AC12AD1380A68A828B837508FF750919
:102EF000FF750AFF750B0078081220507F0402232B
:102F00003374F51222878C828D8378081220638AAD
:102F1000828B837808122016EA2404F8EB3400F937
:102F20008C828D83A3A3A3A3E0FCA3E0FD88828908
:102F300083C3E09CF0A3E09DF088828983C3E09482
:102F400020A3E0944E40268A828B837508FF750982
:102F5000FF750AFF750BFF7808121FEF8A828B83BB
:102F6000A3A3A3A3E02420F0A3E0344EF0022EE7B5
:102F700074F5122287E9FE9004F7E0FAA3E0FBEE75
:102F8000C333F8E433F974AA28F582748239F583DF
:102F9000E02AF508A3E03BF509780812242E7A40D0
:102FA0007B427C0F7D00122DE874021221C18A0839
:102FB0008B098C0A8D0B74107808121F91AA08AB2C
:102FC000097F0402233374F11222878A0C8B0D8C43
:102FD0000E8D0F740F1221F7E0FAA3E0FB741112AB
:102FE00021F7E0F508A3E0F509780812242EEA2479
:102FF00001F508EB3400F509E4F50AF50B780C79D6
:1030000008121E26750871750902780C7908121EBF
:1030100026AA0CAB0DAC0EAD0F122DE874021221D6
:10302000C18B09EA450960047A0180027A00EC2A22
:10303000FCED3400FD74131221F7E0F8A3E0F9E889
:10304000FEE9FFECF8EDF97A717B02122120880885
:1030500089098E828F837808122072ECF8EDF97A54
:10306000717B021221208A088B09740578081221CD
:10307000988E828F83A3A3A3A3E508F0A3E509F0AC
:103080007F08022333C082C083E9906000F0D083C0
:10309000D08222C2AF02000022C0E074F212237379
:1030A000A2AFE433FED2AFE589A2E1500312147659
:1030B000758900C2C5EEA2E092AF7F010223D2C0A3
:1030C000E074F2122373A2AFE433FED2AFE58BA219
:1030D000E05003121476758B00C2E880D8C0E0C0BF
:1030E000D0E8C0E0E9C0E0E5A8D2AFC2C7A2E7A23D
:1030F000E792AFD0E0F9D0E0F8D0D0D0E03253AFD3
:02310000FE329D
:10310400FFFFFFFFFFFFFFFFC082C083E9900AE4D7
:10311400F002339B74F712221BE99002E1F07C1950
:103124007D037AFF7BFF120A509002E274FFF0A342
:10313400F0A3E4F0A3F079051209D89002E1E0F9D4
:103144001208FA7A6E7B0A120C187F010222ED74BF
:10315400F412221B8A088B09EB548060309002E140
:10316400E0F91211F48A0A8B0BAE0AAF0BEE4F6032
:10317400138E828F83E064B070031209F0EEFAEFCD
:10318400FB1211E2AA08E5096480FB80047A007B43
:103194000002336A74F212221B74FC1221ABEAFEA1
:1031A400EBFFEE4F603874021221F7EEF0A3EF123A
:1031B40035CFECF0A3ED1235CFAA82AB831208F41D
:1031C400E9F508707374121221F7124183E50A4578
:1031D4000B60658E828F83123246EE4F7005750840
:1031E4000280557A067B001212488A0C8B0DA80CBB
:1031F400A90DE8497005750813803D88828983E428
:10320400123250A3A3EEF0A3EF12461CE50AF0A37A
:10321400E50BF09002E71232D89002E76017E0FC69
:10322400A3E08003EAFCEBFD8C828D831232D8701C
:10323400F38C828D831240A8A90874041221C10260
:10324400481EA3A3A3A3E0FEA3E0FF22F0A3F088FB
:103254008289832274F212221B890AE975F017A469
:10326400FEAFF09002E6E4F09002E41232D8600A75
:1032740012124E9002E4E4F0A3F0EEFAEFFB121205
:10328400488A088B09EA4509602FEEFCEFFD7900B6
:103294001211D09002E4E508F0A3E509F07B008068
:1032A400081232C2E4F0A3F00BEBC3950A40F2E536
:1032B4000A9002E6F079008002791302481EEB7549
:1032C400F017A4F8A9F09002E4E028FAA3E0398A00
:1032D40082F58322123E3EEA4B2274F412221B75BD
:1032E4000800750900740C1221F71245F0FEE9FF7D
:1032F400800CE5082401F508E5093400F509C3E567
:10330400089CE5099D503285080A85090B740378E9
:103314000A122198EA250AF8EB350BF98882898389
:10332400A3A3A3A3A3A3124183EE650A7003EF65CD
:103334000B70BFE8FAE9FB80047A007B00802774F5
:10334400F412221B7900EAA2E0501B75084C75099F
:1033540083780812242E7C047D007AE67B0A120905
:10336400D274021221C17F040222EDC082C0839074
:1033740002E71233A2601C88828983A3A3E06A70E7
:1033840003A3E06B8882898370E8A3A3A3A3123EFE
:103394003A80047A007B00D083D08202011F124855
:1033A400F1E8492274EE12221B74FC1221ABEAFEEE
:1033B400EBFF851882851983E4F0A3F0EE24021252
:1033C400408CEE24051235BDEE2404F50EEF1239BF
:1033D400A2E024FE603924FC604624FE605224FEF0
:1033E400605E24FE70030234C224FE700302353A88
:1033F40024FE700302354924FE700302355824FC70
:10340400700302356724FE70030235760235B390EB
:1034140003007417F0A3E41235D71206720235B311
:10342400851882851983AC82AD831209F60235832F
:10343400851882851983AC82AD831209FC02358319
:10344400850C08850D0974021221F7AC82AD8385C1
:103454000882850983123E3A1209188A0C8B0DAC36
:103464000CAD0DEC4D6042E4F50CF50D780C122416
:103474002E750C00750D03780C12242E750C017535
:103484000D03780C12242E74081221F712244579A6
:1034940016123E34120A3874081221C1E9F50C7070
:1034A4000B123E3012068A800F750C018508828546
:1034B40009831235C51240A8850C080235867402AA
:1034C4001221F7AC82AD83850C82850D83123E3ABE
:1034D4001209188A108B11AC10AD11EC4D604385A4
:1034E4000C82850D83A3A312244575100075110366
:1034F400781012242E751001751103781012242EE1
:1035040074081221F71224457916123E34120A382F
:1035140074081221C1E9F509700B123E30120690AD
:10352400800F750901850C82850D831235C5124003
:10353400A8850908804C851882851983AC82AD83DF
:10354400120A02803A851882851983AC82AD8312EF
:103554000A08802B851882851983AC82AD83120AF0
:103564000E801C851882851983AC82AD83120A14DF
:10357400800D851882851983AC82AD83120A1AE9FD
:10358400F508E50860298E828F83A3E06414601F28
:10359400850E82850F83E09003001235CF1248ED2B
:1035A4009003011240A8E508A31235D712066CEE69
:1035B400FAEFFB120996023F94F50CEF3400F50D77
:1035C400221248F185188285198322F08518828594
:1035D400198322F07C007D03850A82850B83123EC9
:1035E4003E2274EE12221B74FC1221AB8A0A8B0B4E
:1035F4008C0E8D0FEA2405F508EB3400F5097C15D3
:103604007D0079007A007B031211D0E5082402F5CD
:103614000CE5091235C085188285198385821085C9
:103624008311781012242E850882850983A3A3A30D
:10363400A3123AEA12242EE5082405F510E509340C
:1036440000F511781012242E850C82850D83123E0C
:103654004412091274061221C18A108B11AE10AFE4
:1036640011E50A2402F50AE50B12408FEE4F7003B0
:103674000237AC801774021221F7123E3A8882890D
:1036840083EAF0A3EBF0900300E004F0900300E081
:10369400C3940540030237ACE4F510F51178101219
:1036A400242E7510E9751102781012242E7510EA73
:1036B400751102781012242E74061221F712244573
:1036C4007910EEFCEFFD123E34120A387408122110
:1036D400C1E9705E850882850983A3A3A3A3A3A37C
:1036E400A3E0F89002E9E0687048123AEA12242E46
:1036F4007CEA7D02E5082408FAE5093400FB12118E
:10370400CA74021221C1E960298E828F83A3A3A304
:10371400A3123E3A900300E0F510740278101221CF
:103724009874012510F58274033511F583EAF0A32A
:10373400EBF074021221F785821085831178101240
:10374400242E74021221F7122445850C82850D83E0
:1037540012490212091E74041221C18A108B11AE7F
:1037640010AF11900300E0F5107511007402781089
:1037740012219874002510F874033511F988828990
:1037840083A31232D87003023670E82403F8E934B4
:1037940000F9EE4F60030236798882898374FFF062
:1037A400A3F0900300E004F0900300E0600A123EEE
:1037B4003012067E7900800B8508828509831240C9
:1037C4009F790A023F9474EA12221B74FE1221AB01
:1037D4008C128D13EA2405F50CEB124A6C12324A52
:1037E400750800750900EA2402F510EB3400F511A0
:1037F40085188285198385820A85830B780A1224A9
:103804002E850C82850D83A3A3A3A31239AC1224A5
:103814002EE50C2405F50AE50D12408F780A1224D2
:103824002E850C82850D831249001209127406122A
:1038340021C18A0A8B0BEA450B700302395DEA2425
:1038440004F50EEB1239A212324A8A828B83A3A3A7
:10385400A3E0F9851082851183123E3A120900E92A
:10386400F509600302395DE4F514F51578141224A2
:103874002E7514E9751502781412242E7514EA7540
:103884001502781412242E74061221F71224457995
:1038940013AC0AAD0B851082851183123E3A120ACD
:1038A4003874081221C1E9F509600302395D9002F8
:1038B400E9E0F8E5087009E02402900301F08017BC
:1038C400900301E0FCE82402FAE43400FBEA6C70A3
:1038D40001EB6003023961850882AA82123AE194FD
:1038E40014123AD95073850E82850F83E0C0E074B8
:1038F400022A123999D0E0F00508850E82850F83DB
:10390400A3E0C0E085080A7402250A123999D0E0C0
:10391400F005089002E91239AC12242E7CEA7D02EB
:1039240085080A7402250AFA74033400FB1211B8DC
:1039340074021221C19002E9E02508F50874FF6EB3
:10394400700374FF6F6012EE24010EEF3400FFE584
:1039540008C3941450030237F4E5086013123D259C
:10396400851082851183123E3A12068479008014F0
:10397400E509700375090A851282851383EEF0A3A5
:10398400EFF0A90974021221C17F0E0222ED85080D
:103994000C7402250CF58274033400F58322340080
:1039A400F50F850E82F5832212462F2274EE122221
:1039B4001B74FE1221AB8C0E8D0FEA2405F50CEB63
:1039C4001235C0750B00900300E4F0F50AEA2402F6
:1039D400F508EB3400F5098049900300E0FA900201
:1039E400E9E0F8123AE19417123AD9400D90030035
:1039F400E0F87416C3989002E9F0123AEA12242E01
:103A04007CEA7D0274012AFA74033400FB1211B8B3
:103A140074021221C19002E9E0F8900300E028F05A
:103A2400050AE50C2416F582E50D12399DE0F8E54A
:103A34000AC3984003023AC2900300E0C3941650AC
:103A44007DE50AC333F8E433F9E50C28FEE50D39C6
:103A5400FF851882851983AC82AD838E828F831291
:103A64003E3A1209188A108B11AC10AD11EC4D704E
:103A740005750B018043E4F510F511781012242E1E
:103A84007510E9751102781012242E7510EA75115B
:103A940002781012242E74061221F7122445791686
:103AA400850882850983123E3A120A387408122165
:103AB400C1E9F50B70030239DD12409B80107C00D4
:103AC4007D03850882850983123E3A120696A90B66
:103AD4007402023F96E99400C365D03322EA28F8C1
:103AE400E43400F9E822E0F510751100781022742E
:103AF400EA12221B74FC1221AB8A0C8B0D8C128DE2
:103B040013EA2405F50AEB12408F750800750900C5
:103B1400E50A2402F510E50B3400F51174021221B4
:103B2400F785820E85830F780E12242E850A8285EE
:103B34000B83A3A3A3A31245DB12242EE50A2405B9
:103B4400F50EE50B3400F50F780E12242E85108245
:103B5400851183124095123E341209127406122103
:103B6400C18A0E8B0FAE0EAF0FE50C2402F50EE5E5
:103B74000D3400F50F80408882898374FFF00508B6
:103B840012399274FFF005089002E9E0F50C750D06
:103B940000780C12242E7CEA7D0285080C74022520
:103BA4000CFA74033400FB1211B874021221C19090
:103BB40002E9E02508F508EE4F60718E828F83A339
:103BC400A3A3E0F9850E82850F83123E3A12090001
:103BD400E9F509EE24041235BDE97044E4F514F561
:103BE40015781412242E7514E9751502781412240C
:103BF4002E7514EA751502781412242E74081221F5
:103C0400F71224457911EEFCEFFD850E82850F83B2
:103C1400123E3A120A3874081221C1E9F5096027E4
:103C2400850C82850D83123D1B1240A8E5087003A4
:103C3400023D01123D25850E82850F83123E3A1204
:103C4400069C7900023D16850882AA82EA9002E960
:103C54007009E02404900301F08022E0F89003014D
:103C6400E0F514E82404FCE43400FDEC6514700170
:103C7400ED70C0123AE19412123AD950B6850C8212
:103C8400850D83E0C0E074022A123999D0E0F00572
:103C940008850C82850D83A3E0C0E0123992D0E040
:103CA400123D3785820C85830D780C12242E740402
:103CB4001221F712244585108285118312490212BC
:103CC400091E74041221C18A0C8B0DAE0CAF0D8534
:103CD400080C7402250CF874033400F9EE4F7003D9
:103CE400023B7B851882851983E088828983123D93
:103CF40037A3E0C0E0123992D0E0023B89E50970B5
:103D04000375090A850A82850B83123D1B1240A89C
:103D1400A909740402398A1248F185128285138331
:103D240022900301E0F5F0E50884900300F07C00A4
:103D34007D0322F005088518828519832274EC120C
:103D4400221B74FE1221AB8A088B098C0E8D0FEA9C
:103D54002405FEEB3400FF851882851983AC82ADFF
:103D6400838E828F83123E3A1209188A0A8B0BEED5
:103D740024181235BDEA450B7003023E0B123F7D39
:103D84005032851882851983123E3A120A2C8A1001
:103D94008B11EA4511606B7912AC0AAD0B85088270
:103DA400850983123E3A851082851183122219E90E
:103DB400F50A7058E4F50AF50B780A12242E8E825F
:103DC4008F83A3A3E0F50A780A12242EEE240312AB
:103DD400408C780A12242E8E828F83123E44120A5B
:103DE4003E74061221C1E9F50A7021850C82850D05
:103DF40083E0701F850882850983123E3A1206A269
:103E04008011750A0E8009750A018004E50A6003B1
:103E140012409B850C82850D83E06004790080024A
:103E2400A90A74021221C17F0C0222ED7C007D03D9
:103E3400850A82850B83123E3E22E0FAA3E0FB2230
:103E4400E0FCA3E0FD850882850983123E3E2274CE
:103E5400EE12221B74FE1221AB8A088B098C0C8D86
:103E64000DEA2405FEEB3400FF750E0085188285EB
:103E74001983AC82AD838E828F83123E3A12091865
:103E84008A0A8B0BEA450B7003023F69123F7D508F
:103E940035851882851983123E3A120A2C8A0E8BB4
:103EA4000FEA450F605E7912AC0AAD0B8508828576
:103EB4000983123E3A850E82850F83122219E9F591
:103EC4000E6003023F6C850882850983124183AA30
:103ED4000AFB120A208A108B11A810A911E8497054
:103EE4001E7AFF7BFF120A208A108B11A810A911D9
:103EF400E849606C88828983E50AF0A3E50BF075D4
:103F04000A008007750E0E805F050A9002E6E0FA4B
:103F1400E50AC39A504AE50A75F017A4FAABF0888B
:103F2400828983A3A3E02AFAA3E03BFB8A828B83E2
:103F3400124095EC4D70D2750A17750B00780A1271
:103F4400242EEEFCEFFD1211B874021221C1EEFC16
:103F5400EFFD850882850983123E3A1206A8801473
:103F6400750E098003750E011248E9850C82850DD2
:103F7400831240A8A90E023AD4E5082402F508E504
:103F8400093400F5098A828B83A3A3A3E0A2E52266
:103F940074041221C17F0A0222ED74EC12221B8CDC
:103FA400108D11EA2405F50CEB1235C0750F00EAEB
:103FB4002402F50AEB12408F850A82F583123E3AF9
:103FC400120A208A088B09EA4509700302408175A8
:103FD4000E008071850C82850D83E06401704F8E24
:103FE400828F83A3A31224458E828F83A3A3A3A3CA
:103FF400E0F512751300781212242EEE2405F51242
:10400400EF3400F513781212242E123E34120A3EB5
:1040140074061221C1E9F50F6014850C82850D83A5
:10402400E4F01248E98510828511831240A87C17B8
:104034007D007900EEFAEFFB1211D08E828F83E4BB
:10404400F0A3F0050E9002E6E0F8E50EC398501ECA
:10405400E50E75F017A4F8A9F0850882850983A3F5
:10406400A3124A76124095EC4D6003023FD88508AE
:104074008285098374FFF0A3F0E50F7006123E34C5
:104084001206AEA90F023E2BF50AEF3400F50B22FF
:10409400A3E0FCA3E0FD228E828F831248F1850EFB
:1040A40082850F83E8F0A3E9F022C082C0839002E6
:1040B400E2E06A7003A3E06B70067AE27B0280049C
:1040C4007A007B0002339BC082C08378008C828D8F
:1040D40083E06A7003A3E06B7010E875F003A4F842
:1040E400A9F0EC28FAED39FB8015088C828D83A3A6
:1040F400A3A3E06A7003A3E06B60DF7A007B000295
:10410400339B74F612221B1209EA8A828B83E5829E
:10411400458370067A007B008007A3A3A3A3123E05
:104124003A02479A74F212221BE9FE740E1221F726
:1041340012418374101221F71245FB8C828D83E0A7
:1041440064027036A31248F7F50CA3E0F9A80C74C6
:10415400026870037429697021750C02750D00786A
:104164000C12242E780812242E780A12242EEEF92A
:10417400120A6274061221C18002790102481EE00B
:10418400F50AA3E0F50B2274E812221B74FB12213A
:10419400ABE9851882851983F08A168B17ECFEED3E
:1041A400FF751000741D1221F71248ED741D1221C1
:1041B400F71240A88E828F83A3A3A3E0A2E4502D1C
:1041C400741D1221F7123E3A120A2C8A828B83E55F
:1041D40082458370030245CC790AEEFCEFFDAA16F2
:1041E400AB17122219E9F51060030245CF741F12B0
:1041F40021F71245FB74211221F712418374231213
:1042040021F7E0F50EA3E0F50F8E828F83E06402C0
:10421400600302457AA31248ED850882850983A3C9
:10422400858212858313EE24061235BD8882898324
:10423400E0FAA3E0F9EA2400F514E439F51578145A
:104244001224B80100002801286F42070002283414
:10425400430328A14200296B4401299644022937CB
:104264004403296B44042915457A45E50E450F603E
:1042740003024575850C82850D831245F0FAE9FB2E
:104284008A828B83E0850A82850B83124626122458
:104294002E8A828B83A3E0FCA3E00244FFE50E4553
:1042A4000F6003024575850A82850B837401F01241
:1042B4004603850882850983F07C007D008E828F09
:1042C40083A3A3A3A3E02401FAA3E03400FB12090F
:1042D40018EA4B60418A828B83E02402F8850A82C3
:1042E400850B83E028F0EA2404F8EB3400F9888293
:1042F4008983E0851282851383124638124626127A
:10430400242E8A828B83124094E5082403FAE5095B
:104314003400FB024504850A82850B83E02404F003
:104324007C047D007900AA12AB131211D00245CF90
:10433400E50E450F6003024575124603FEA3E0FF38
:10434400850A82850B837404F0EE850882850983CF
:10435400F0EF851282851383F074031221F7AC8287
:10436400AD83EEFAEFFB1209188A0C8B0DEA450DAA
:1043740070030244188A828B83A3A3123246740109
:104384001221F785820E85830F780E12242E740570
:104394001221F71224457CFF7DFF12091E740412BA
:1043A40021C18B0FEA450F7033850C82850D831272
:1043B40045DB12242E850C82850D83A31224457CB3
:1043C400027D007AC57B8312074A74041221C1E975
:1043D400700A74011221F774FFF0A3F08E828F83A8
:1043E400E064027039750C02750D00780C12242EED
:1043F4008E828F83124094E5082404FAE509340080
:10440400FB1211B874021221C1850A82850B83E064
:104414002402800974011221F7EEF0A3EFF0740175
:104424001221F71245ECF074011221F7A31245E4AE
:1044340002456FE50E450F6003024575850C8285C4
:104444000D83124095AA16AB17120A56850A828567
:104454000B837402F0EA850882850983F085128251
:10446400851383EB024572E50E450F600302457523
:10447400124603F8A3E0F9850A82850B837402F0DF
:10448400E8850882850983F0E98512828513830211
:104494004572850C82850D83123E3A1211B2EAFCF4
:1044A4008C82A882C3950EE4950F405FE8650E7078
:1044B40002E50F70047C008022851882851983E050
:1044C400FAE50E2AFAE50F3400FBC3EA98EB9400F0
:1044D4005003E08005E50ECCC39CFCEC850A828584
:1044E4000B83F08C0A750B00780A12242E850C823B
:1044F400850D83E0250EFCA3E0350FFDAA08AB096A
:104504001211B874021221C10245CF751007024579
:10451400CFE50E450F705A850C82850D831248ED48
:10452400850A82850B8374071232521245E41232D3
:1045340052A3E0851282851383F0E82402FAE93459
:1045440000FB8A828B831245E41246131245ECA3C6
:1045540012461C1245F5F0E82405F8E93400F98800
:104564008289831245F5A3124638A3A3A3A3F0803E
:104574005A75100B8055741D1221F7123E3A120918
:10458400EA8A828B83E5824583603D1248ED880C7C
:10459400890DE8450D6031780E12242E780A122414
:1045A4002E780812242E74061221F7E0F9EEFCEF9F
:1045B400FDAA16AB17850C82850D83122219740689
:1045C4001221C1E9F510800375100EA910740512AB
:1045D40021C17F100222EDE0F50E750F00780E2246
:1045E400E085088285098322124642221248F1E8B6
:1045F40022124642A3A322E0F508A3E0F50922858E
:104604000C82850D83E0F8A3E0F5838882E022A381
:10461400A3F08A828B83A322F088828983A3A3A335
:10462400A322F08A828B8312462F22E0F50A750BAF
:1046340000780A22F088828983A312464222E08508
:104644000882850983A3A32274EE12221B74FE122E
:1046540021AB8A0A8B0BECFAEDFB74141221F7E000
:10466400F510A3E0F51174161221F7E0FE74181288
:1046740021F7E0F50EA3E0F50F851882851983ACC8
:1046840082AD831209188A0C8B0DEA450D604985A9
:104694001882851983123E3A1209EA8A828B83E5CD
:1046A400824583602FA3A31245FBE50845096024D6
:1046B400780E12242E781012242EEEF9AC0CAD0DC7
:1046C400AA0AAB0B85088285098312221974041285
:1046D40021C18006790E80027901023AD474F6125F
:1046E400221B74FE1221AB740C1221F71245F085C3
:1046F4001882851983F074011221F7E9F0E4F508B2
:10470400F509780812242E750802780812242E74EC
:10471400041221F7858208858309780812242E1251
:104724000A3E74061221C174021221C1806874F712
:1047340012221BEAFEEBFF89087C197D03120A563C
:10474400EA5402600BA908EEFAEFFB12090C80028E
:10475400790102314E74F612221B74FF6A700374DD
:10476400FF6B70168C828D8312479FE4F08C828DD0
:1047740083A3A3A312479FA38018120A268A088B37
:1047840009A808A909E849600D8882898374FF1281
:104794003250A3A3E4F07F020222ED74FFF0A3F0F1
:1047A4008C828D83A3A32274F612221B120A268AFA
:1047B400828B83E58245836006A3A3E0FA80027AB4
:1047C400007B0080D174F212221B8A088B09ECFE54
:1047D400EDFF740E1221F7E0F50A120A268A0C8BFB
:1047E4000DA80CA90DE8497026EEFCEFFD7AFF7BBD
:1047F400FF120A268A0C8B0DA80CA90DE849700437
:104804007911801688828983E508F0A3E509F08888
:10481400828983A3A3E50AF079007F060222ED745E
:10482400EE12221BEAFEEBFF8C088D09890C74142E
:104834001221F71248ED74161221F7123E3A750D43
:1048440000E84960030248E17402650C6003024811
:10485400DC74121221F71248F7FCA3E0F9EC2400EF
:10486400F50EE439F50FEAF4F8EBF4F9EC58F8E551
:104874000F59F9E849705CE5082406F8ED3400F9AD
:10488400880A890B8882F583124902120A568A1013
:104894008B11E50E65107004E50F65116042780E0A
:1048A40012242E850A82850B83124902120A5C7433
:1048B400021221C1E9F50D7027780E12242E850805
:1048C40082850983A3A3124900120A747402122177
:1048D400C1800D750D808008750D0D8003750D0B5D
:1048E400A90D023F998E828F831248F122E0F8A32A
:1048F400E0F9221248F188828983E022A3A3E0FC34
:10490400A3E0FDEEFAEFFB2274E812221B74E71217
:1049140021AB851882851983EAF0A3EBF08C168D00
:1049240017890E75080075090074311221F7E0F536
:1049340012A3E0F51374331221F7E0F514A3E0F5A4
:104944001574351221F7E0F50FE50975F003A4F8A5
:10495400A9F0851882851983124A76E0F47003A3BE
:10496400E0F47003024A59EE2402F50CEF124A6C8B
:10497400E07003024A5985160A85170B780A122437
:104984002EAC14AD15AA12AB131209DE7402122157
:10499400C18A0A8B0BEA450B7003024A59E4F510ED
:1049A400F511781012242E74061221F785821085D1
:1049B4008311781012242E74091221F78582108530
:1049C4008311781012242E851282851383A3A3A346
:1049D400A31224457914AC0AAD0B8E828F83123E48
:1049E4003A120A3874081221C1E97069850A82856D
:1049F4000B83A3A3A3A31248ED74021221F7124060
:104A0400A8850C82850D83E0A2E05018A90E7402DB
:104A14001221F7AC82AD838E828F83123E3A120943
:104A240030E94208850C82850D83E0A2E15026E539
:104A34000FF50A780A122432A90E74031221F7AC76
:104A440082AD838E828F83123E3A12092A74011238
:104A540021C1E942080509E509C39402500302494A
:104A64004DA90874190245D33400F50D850C82F55F
:104A74008322E028FEA3E039FF8E828F832274F222
:104A840012221BEAFEEBFF890B7401650B600E74A6
:104A940002650B706A7901120C36E97062EEFAEF66
:104AA400FB120A208A088B09EA45096047750A0047
:104AB400800B7C177D0079001211D0050A9002E664
:104AC400E0F8E50AC3985021E50A75F017A4F8A99F
:104AD400F0850882850983A3A3E028FAA3E039FBC3
:104AE4008A828B831233A270C985088285098374F4
:104AF400FFF0A3F07C197D03EEFAEFFB120A5002DB
:104B0400481E74F212221B8A088B09ECFEEDFF7416
:104B14000E1221F7124183900AE4E0F4603D7A0911
:104B24007B001211DCEA4B60328A828B8374B1F011
:104B3400A3E4124615A3124613A3E508F0A3E5095E
:104B4400124B62EEF0A3EF124B62A3A3E50AF0A3AB
:104B5400E50BF0900AE4E0F91211E802481EF08A2D
:104B6400828B83A3A3A3A3A322C082C0839061905A
:104B74007404F0A37448F0A37402F090618074404C
:104B8400F09061BC7403F09061877419F0906265D1
:104B9400741BF0906249E0C3941390619C400A74C2
:104BA40009F090606674018007740DF0906066E40B
:104BB400F090619A7433F0A37455F09061A0743A44
:104BC400F090053FE064017009C2919003A67467F8
:104BD40080059003A67461F090310AE49390618695
:104BE400F0903104E493F46027E493540FF8906157
:104BF40085E0686012E5C654804449F5C6E59E54D4
:104C04007F644970F8E8F053C680E59E547F70FADB
:104C14007905120F7E024D9BC082C083E5A8F8532C
:104C2400A87E906181E4F0A3F0A3F0C2BA539AFE87
:104C3400C289759B00C2C275E90075910075BF00F9
:104C440075A91175B905906181F0A374C0F0A3E44E
:104C5400F0D2BA439A0174805842A8024D9BC08294
:104C6400C08374F81221AB9003A4E0F8A3E0F9E840
:104C7400497003024D909003A4E0544060237908E6
:104C8400851882851983AA82AB83120DF285188256
:104C9400851983AA82AB83120AE69003A4E054BF69
:104CA400F0E054806010790C7A657B05120DF29067
:104CB40003A4E0547FF0E0A2E0503190619A743391
:104CC400F0A37455F09061A0743AF090053FE0644D
:104CD400017009C2919003A6746780059003A674BD
:104CE40061F0120AEC9003A4E054FEF0E054026078
:104CF4003190619A743FF0A3745AF09061A0747F6C
:104D0400F090053FE064017009D2919003A674719C
:104D140080059003A6746AF0120AEC9003A4E05490
:104D2400FDF0E054046013903108E493906186F040
:104D3400120AF29003A4E054FBF0E05408601390CC
:104D44003109E493906186F0120AF29003A4E054CE
:104D5400F7F0E05410601390310AE493906186F008
:104D6400120AF29003A4E054EFF0E05420600A1217
:104D74000AF29003A4E054DFF0A3E05401600D12A2
:104D84000D1A120AF89003A5E054FEF074081221DB
:104D9400C1024D9BF0A3F0D083D08202011F74ECBA
:104DA40012221B74F41221AB851882851983AC82FC
:104DB400AD8375838375827474041220BE903108A8
:104DC40093F46003024F2E907808E0C394025003DA
:104DD400024F0E74041221F7AC82AD837583837580
:104DE400821A74081220BE8518828519838582125E
:104DF40085831374041221F7AC82AD83750EFF759D
:104E04000FFF7FFF7E00750C48750D7880157408C0
:104E14006E7003024EA274096E7003024EA2740AED
:104E24006E607B850C82850D8378081220638C82EA
:104E34008D83A909E50AC9F8881074187808121F27
:104E440091E5104508F8C3E098A3E099850C8285A4
:104E54000D83780812206340188C828D837418782F
:104E640008121F91E5104508F8E0C398F8A3E08004
:104E74001C74187808121F91E5104508FAE9FB8C98
:104E8400828D83E0F8A3E0F9EAC398F8EB99F9C3BB
:104E9400E8950EE9950F5006880E890FEEFF0EE592
:104EA4000C2404F50CE50D3400F50DEEC3941350F9
:104EB40003024E1274FF650E700474FF650F6023C5
:104EC4008F087402780812219874482508F58274B2
:104ED400783509F583780812206385128285138357
:104EE400E508F0EC2402FCED3400FD851282851304
:104EF40083A3858212858313740C1221F7E5826CD7
:104F04007003E5836D6003024E00750801750900A6
:104F1400780812242E74021221F7AC82AD837A42EF
:104F24007B0C12145274021221C1740C1221C17F21
:104F34000C0222EDC082C0839061AE7468F0A37449
:104F44006AF090624574FBF0A304F053F4FD43FE51
:104F54000290053F7401F09061A0E0643A90619A78
:104F640070237433F0A37455F09061A0743AF07414
:104F74000164017009C2919003A6746780289003AC
:104F8400A674618021743FF0A3745AF09061A074F8
:104F94007FF0740164017009D2919003A67471804A
:104FA400059003A6746A024D9A7F080222EDC0821E
:104FB400C0839004F1E06401700A9004F6E0600498
:104FC400790C80027900024D9BC082C08375E1F1A7
:104FD4009004F4E0605B14600914605F146057147B
:104FE400705E120D2C9004EAE0F97AEB7B04120F48
:104FF400007AD67BBE7C897D8E120F367A557B551E
:105004007C557D00120F0C9004F5E0F9120F18790D
:1050140001120F729004E8E0F8A3E0C82416F582A8
:10502400E83400F5837444F0A3740DF07900024D64
:105034009B120D3280AF120D3880AA120D3E80A54E
:10504400791280EA74F012221B75D90D9004D5E010
:10505400A2E0E4331313F89004EAE0C4333354C0F9
:10506400484401F5D978E8790488828983A3A3A305
:10507400E0F5D988828983A3A882A983E864EE70C5
:1050840003E9640470E378D5790488828983A3E012
:10509400F5D988828983A3A882A983E864DB700395
:1050A400E9640470E575E1959004D5E0F97AD67B5E
:1050B40004120F06900B0674DEF0A3740CF0A374B4
:1050C4003AF0A3740EF0A3743AF0A3740EF0A37430
:1050D4003AF0A3740EF0A374E4F0A3740CF0A37478
:1050E4003AF0A3740EF0A374FCF0A3740CF0900BCC
:1050F40014743AF0A3740EF0A3743AF0A3740EF08F
:10510400A3743AF0A3740EF0A3743AF0A3740EF0EF
:10511400A3743AF0A3740EF0A3743AF0A3740EF0DF
:105124009004F4E064019004E87012E0F8A3E0F560
:10513400838882A3A37508007509088010E0F8A38A
:10514400E0F5838882A3A3750804750900750A0035
:10515400750B007808121FDC750CFF750DFF750EBA
:10516400FF750F007808790C12202A9004E8E0F803
:10517400A3E0C8240EF582E83400F58378081220F1
:10518400729004E8E0F8A3E0C82414F582E834003F
:10519400F5837413F09003A27402F0024FAD74F718
:1051A40012221B9004FAE02407F5D99004EAE0C423
:1051B400333354C0F5D978E8790488828983A3A36A
:1051C400A3E0F5D988828983A3A882A983E864EE41
:1051D4007003E9640470E39004FAE0601F78E879EE
:1051E40004FAE82413F582E93400F583E0F5D9885C
:1051F400828983A3A882A9831AEA70E690051AE03B
:105204002407F5D99004EAE0C4333354C04404F5C8
:10521400D978E8790488828983A3A3A3E0F5D9889F
:10522400828983A3A882A983E864EE7003E96404F5
:1052340070E390051AE0601F78E87904FAE82433F3
:10524400F582E93400F583E0F5D988828983A3A83F
:1052540082A9831AEA70E675E195900B0674EAF068
:10526400A3740CF0A3743AF0A3740EF0A3743AF090
:10527400A3740EF0A3743AF0A3740EF0A374E4F0D4
:10528400A3740CF0A3743AF0A3740EF0A374FCF0AE
:10529400A3740CF0900B14743AF0A3740EF0A3747E
:1052A4003AF0A3740EF0A3743AF0A3740EF0A3744E
:1052B4003AF0A3740EF0A3743AF0A3740EF0A3743E
:1052C4003AF0A3740EF09004E8E0F8A3E0C8240ECA
:1052D400F582E83400F58374FFF0A3F0A3F0A3F0A3
:1052E4009004E8E0F8A3E0C82414F582E83400F55B
:1052F400837412F09003A27401F0FF0222ED74F79C
:1053040012221B9004FAE02407F5D99004EAE0C4C1
:10531400333354C04402F5D978E879048882898308
:10532400A3A3A3E0F5D988828983A3A882A983E8EB
:1053340064EE7003E9640470E39004FAE0601F789B
:10534400E87904FAE82413F582E93400F583E0F5FA
:10535400D988828983A3A882A9831AEA70E675E1B1
:1053640095900B0674F6F0A3740CF0A374F6F0A3F6
:10537400740CF0A374F6F0A3740CF0A374F6F0A309
:10538400740CF0A374F6F0A3740CF0A374F6F0A3F9
:10539400740CF0A374FCF0A3740CF0900B14743A26
:1053A400F0A3740EF0A3743AF0A3740EF0A3743A4D
:1053B400F0A3740EF0A3743AF0A3740EF0A3743A3D
:1053C400F0A3740EF0A3743AF0A3740EF09004E802
:1053D400E0F8A3E0C8240EF582E83400F58374FFF6
:1053E400F0A3F0A3F0A3F09004E8E0F8A3E0C8244D
:1053F40014F582E83400F5837414F09003A2740465
:10540400F00256C974F712221B9004FAE02407F53F
:10541400D99004EAE0C4333354C04406F5D978E89B
:10542400790488828983A3A3A3E0F5D98882898338
:10543400A3A882A983E864EE7003E9640470E3908E
:1054440004FAE0601F78E87904FAE82413F582E9A5
:105454003400F583E0F5D988828983A3A882A983DF
:105464001AEA70E690051AE02407F5D99004EAE0F8
:10547400C4333354C04404F5D978E8790488828964
:1054840083A3A3A3E0F5D988828983A3A882A983EF
:10549400E864EE7003E9640470E390051AE0601FA9
:1054A40078E87904FAE82433F582E93400F583E0F6
:1054B400F5D988828983A3A882A9831AEA70E6753C
:1054C400E195900B0674F0F0A3740CF0A3743AF019
:1054D400A3740EF0A3743AF0A3740EF0A3743AF01C
:1054E400A3740EF0A3743AF0A3740EF0A3743AF00C
:1054F400A3740EF0A374FCF0A3740CF0900B14745A
:105504003AF0A3740EF0A3743AF0A3740EF0A374EB
:105514003AF0A3740EF0A3743AF0A3740EF0A374DB
:105524003AF0A3740EF0A3743AF0A3740EF090044E
:10553400E8E0F8A3E0C8240EF582E83400F58374AB
:10554400FFF0A3F0A3F0A3F09004E8E0F8A3E0C810
:105554002414F582E83400F5837415F09003A274E2
:1055640003F00256C9C082C0839004E8E0F8A3E0C7
:10557400C82406F582E83400F583E4024D9874F7F4
:1055840012221B9003D0E0F875F003A4C8AAF02AF5
:10559400F974D228F8740339F9E82405FAE93400D7
:1055A400FB8A828B83E0FCA3E0FD88828983A3A32A
:1055B400A3A3A3A3A3A3A3ECF0A3EDF08882898300
:1055C400A3A3A3A3A3A3A3E024FFF8A3E034FFF9B8
:1055D4008A828B83E8F0A3E9F00256C974F7122299
:1055E4001BEAFEEBFF9061D0E060030256BD75D963
:1055F4000E75D90375D904EE248BF582EF3400F5CA
:1056040083E5822408F8E5833400F9E0F5D9A3E8BA
:1056140065827003E9658370F2EE2483F582EF34CA
:1056240000F583E5822404F8E5833400F9E0F5D934
:10563400A3E865827003E9658370F275E1957908E2
:10564400EE248BFAEF3400FB120DE67904EE24838A
:10565400FAEF3400FB120DE67C00EEF8EFF9ECFAF9
:10566400C3E49AFA95E0FBEE2AFAEF3BFBEA248ABC
:10567400F582EB3400F583E0C0E0E824AAF582E982
:105684003400F583D0E0F00C88828983A3A882A932
:1056940083ECC3940840C7EE246FF582EF3400F521
:1056A40083E0F8A3E0F9EE2471F582EF3400F5838A
:1056B400E8F0A3E9F07901800279008008F0EEA215
:1056C400E092AF79007F010222EDC082C08375D9D8
:1056D4000275D90375D90575E195EA246FF582EB56
:1056E4003400F583E0F8A3E0F9EA2471F582EB34A1
:1056F40000F583E8F0A3E9F07901024D9B74F612FA
:10570400221BEAFEEBFF9005457406F0750845750B
:105714000905780812242E7C017903120E2E7402D6
:105724001221C175D90675D903758245758305E0C3
:10573400F5D9A3E582644A7004E583640570F075C5
:10574400E1959003A2E06408701EEE246FF582EFE9
:105754003400F583E0F8A3E0F9EE2471F582EF3428
:1057640000F583E8F0A3E9F079010259CF74F61249
:10577400221BEAFEEBFF9061D0E070667801900591
:1057840045740BF09003A2E0640770197508457521
:105794000905780812242E7C017903120E2E740256
:1057A4001221C17805740128F5D975D9037582458C
:1057B400758305E8FAE0F5D9A31AEA70F875E1955E
:1057C400EE246FF582EF3400F583E0F8A3E0F9EE00
:1057D4002471F582EF3400F583E8F0A3E9F0790150
:1057E400800279000259CF74F712221BEAFEEBFF04
:1057F40075D90375D90375D90DEE24DDF582EF341F
:1058040000F583E0F5D975E1957904120F3CEE2497
:105814006FF582EF3400F583E0F8A3E0F9EE24712C
:10582400F582EF3400F583E8F0A3E9F0790102563C
:10583400C974F612221BEAFEEBFF9061D0E0F87403
:1058440080C398FAEE2482F582EF3400F583E06099
:1058540004780480027800E8240BF8EAC398500323
:105864000258FA7D09900545EDF0EE24E2F8EF3494
:1058740000F97A467B057C0888828983E08A828BDA
:1058840083F088828983A3A882A9838A828B83A3D5
:10589400AA82AB831CEC70E0EE2482F582EF340024
:1058A400F583E0601D750845750905780812242EF6
:1058B4007C097903EEFAEFFB120E2E74021221C159
:1058C4007D0D74012DF5D975D90375824575830550
:1058D4008D08E0F5D9A31508E50870F675E195790A
:1058E40004120F3CEE241DF582EF3400F583E4F03E
:1058F400A3F07901800279000259CF74F612221BB9
:10590400EAFEEBFF9061D0E0F87480C398FAEE24CD
:1059140082F582EF3400F583E06004780480027835
:1059240000E82408F8EAC39850030259CD78069099
:105934000545740CF09003BFE0900546F09003C059
:10594400E0900547F09003C1E0900548F09003C251
:10595400E0900549F09003C3E090054AF0EE2482FC
:10596400F582EF3400F583E0601B75084575090581
:10597400780812242E7C067903EEFA120E2E740295
:105984001221C1780A740128F5D975D903758245A5
:105994007583058808E0F5D9A31508E50870F67540
:1059A400E1957904120F3CEE246FF582EF3400F593
:1059B40083E0F8A3E0F9EE2471F582EF3400F58377
:1059C400E8F0A3E9F07901800279007F020222ED78
:1059D40074F612221BEAFEEBFF9061D0E0F87480AB
:1059E400C398FAEE2482F582EF3400F583E0600474
:1059F400780480027800E82404F8EAC3985003028B
:105A04005AAE7802900545E8F0EE24F4F582EF34BE
:105A140000F583E0900546F0EE2482F582EF340031
:105A2400F583E0601B750845750905780812242E76
:105A34007C027903EEFA120E2E74021221C178064A
:105A4400740128F5D975D9037582457583058808CD
:105A5400E0F5D9A31508E50870F675E195EE247311
:105A6400F582EF3400F583E4F0EE247FF582EF3421
:105A740000F583E4F0EE241DF582EF3400F583E4B1
:105A8400F0A3F07904120F3CEE240DF582EF3400FC
:105A9400F583E0F8A3E0F9EE2471F582EF3400F524
:105AA40083E8F0A3E9F07901800279000259CF7408
:105AB400F612221B9061D0E0F87480C398FCEA24AB
:105AC40082F582EB3400F583E06004780480027888
:105AD40000E82404F8ECC398405B7902900545740F
:105AE40007F0EA24F5F582EB3400F583E0900546EF
:105AF400F0EA2482F582EB3400F583E0601875083F
:105B040045750905780812242E7C0209120E2E749C
:105B1400021221C17906740129F5D975D903758258
:105B240045758305E9F8E0F5D9A318E870F875E13F
